:020000040800F2
:1000000010100020890100089101000893010008E8
:100010009501000897010008990100080000000000
:100020000000000000000000000000008103000844
:100030009D0100080000000031030008A50300082E
:10004000A3010008A3010008A3010008A301000800
:10005000A3010008A3010008A3010008A3010008F0
:10006000A3010008A3010008A3010008A3010008E0
:10007000A3010008A3010008A3010008A3010008D0
:10008000A3010008A3010008A3010008A3010008C0
:10009000A3010008A3010008A3010008A3010008B0
:1000A000A3010008A3010008A3010008A3010008A0
:1000B000A3010008A3010008A3010008A301000890
:1000C000A3010008A3010008A3010008A301000880
:1000D000A3010008A3010008A3010008A301000870
:1000E000A3010008A3010008A301000800F002F822
:1000F00000F03AF80AA090E8000C82448344AAF188
:100100000107DA4501D100F02FF8AFF2090EBAE885
:100110000F0013F0010F18BFFB1A43F0010318473B
:10012000A8180000C8180000103A24BF78C878C189
:10013000FAD8520724BF30C830C144BF04680C60ED
:10014000704700000023002400250026103A28BF35
:1001500078C1FBD8520728BF30C148BF0B60704739
:100160001FB51FBD10B510BD00F0A8F81146FFF770
:10017000F7FF00F0B3F900F0C6F803B4FFF7F2FFA1
:1001800003BC00F0CDF8000009488047094800474B
:10019000FEE7FEE7FEE7FEE7FEE7FEE7FEE7FEE737
:1001A000FEE7FEE704480549054A064B7047000094
:1001B000CD030008ED000008100A002010100020F8
:1001C000100C0020100C0020032A40F2308010F0A8
:1001D000030C00F0158011F8013BBCF1020F6244E2
:1001E00098BF11F801CB00F8013B38BF11F8013B73
:1001F000A2F1040298BF00F801CB38BF00F8013B20
:1002000011F0030300F02880083AC0F0088051F88C
:10021000043B083A51F804CBA0E80810F5E7121D9A
:100220005CBF51F8043B40F8043BAFF30080D207B9
:1002300024BF11F8013B11F801CB48BF11F8012B85
:1002400024BF00F8013B00F801CB48BF00F8012BA8
:10025000704770477047704710B5203AC0F00B8068
:10026000B1E81850A0E81850B1E81850A0E81850AC
:10027000203ABFF4F5AF5FEA027C24BFB1E8185022
:10028000A0E8185044BF18C918C0BDE810405FEA84
:10029000827C24BF51F8043B40F8043B08BF704700
:1002A000D20728BF31F8023B48BF11F8012B28BF05
:1002B00020F8023B48BF00F8012B7047754600F05C
:1002C0002BF8AE4605006946534620F007008546E8
:1002D00018B020B5FFF766FFBDE820404FF00006DC
:1002E0004FF000074FF000084FF0000BAC46ACE8B1
:1002F000C009ACE8C009ACE8C009ACE8C00921F00D
:1003000007018D46704710B50446AFF300802046C4
:10031000BDE81040FFF731BF0048704710000020D3
:1003200001491820ABBEFEE726000200704700001E
:10033000EFF30980BFF36F8F0D4B1A6820E9F00FC0
:1003400010602DE908404FF0500080F3118800F054
:1003500021FE4FF0000080F31188BDE808401968C5
:100360000868B0E8F00F80F30988BFF36F8F70471B
:10037000E801002000000000000000000000000074
:10038000074B19680868B0E8F00F80F30988BFF3DD
:100390006F8F4FF0000080F311884EF00D0E704704
:1003A000E801002080B54FF0500080F31188BFF3C2
:1003B0006F8FBFF34F8F01F0AFF918B1C3484FF003
:1003C00080510160002080F3118880BD82B03748E1
:1003D000374A016841F00101016041681140354A26
:1003E0004160016811400160016821F480210160D1
:1003F000416821F4FE0141604FF41F01816000213A
:1004000001910091016841F480310160016801F4BB
:1004100000310091019901310191009919B90199B7
:10042000B1F5A06FF2D1016811F4003F0CBF0021BB
:10043000012100910099012932D14FF48051425895
:1004400042F010024250425822F0030242504258F9
:1004500042F0020242504168416041684160416897
:1004600041F480614160416821F47C114160416840
:1004700041F4E8114160016841F080710160016858
:1004800011F0007FFBD0416821F003014160416819
:1004900041F002014160416801F00C010829FAD1E4
:1004A00005484FF00061016002B070470010024043
:1004B0000000FFF8FFFFF6FE08ED00E070B5064C07
:1004C0004FF4001520269620256000F0BFFC9620F2
:1004D000266000F0BBFCF6E710080140E0B50D48CF
:1004E00018220023016841F0040101600A480168F4
:1004F00021F440010160016841F4001101600748E6
:100500000121CDE90010064806A101F02FF800F006
:1005100001FDFEE71810024000080140E401002040
:10052000BD0400086C6564426C696E6B00000000DD
:100530002DE9F041DFF8BC8A164F04460D46D8F885
:1005400014603868043000F059FB601C08D13DB1DC
:10055000396808F14C000431BDE8F04100F08ABB75
:100560003868A419446007D3D8F8300039680431DA
:10057000BDE8F04100F061BBD8F82C0039680431C7
:1005800000F05BFBD8F82000844238BFC8F8204058
:10059000BDE8F081E801002070B500F077FB0F4E58
:1005A0003068B0B906F11404204600F038FB06F1BB
:1005B0002805284600F033FB0A200C210022C6E95A
:1005C000024500F06DFD0028306002D004A100F06B
:1005D00005FCBDE8704000F079BB00BF10010020B1
:1005E000546D725100000000026C5AB1D0E902C390
:1005F0001344C360634524BF0368C36008461946BB
:10060000FFF7E2BD704770B51546866B026C044675
:100610002AB3C5B1E068FFF7D7FDE268206C216816
:10062000121A8A42E26003D2A16840420844E060A4
:10063000A91E002E3046B1FA81F118BF01204909E8
:100640000840361A0BE06068FFF7BEFDD4E90101EF
:10065000226C10446060884224BF20686060701C77
:10066000A06370BD10B50446006B00F045FB20464A
:10067000BDE8104000F040BB2DE9F0414B4D124E5B
:10068000EE4F4FF08058686890B100F0FFFA686C48
:10069000C468201D00F0B2FAA8680138A860686834
:1006A0000138686000F012FB2046FFF7DBFFEAE745
:1006B00030680228E7D3C7F800803846BFF34F8F71
:1006C000BFF36F8FDFE700BF8001002004ED00E083
:1006D000DFF894C60CF10C02114612688242FBD37B
:1006E00080B5D1F804E001EB0E03834203D14068EA
:1006F000704448600846D0F804E000EB0E039342D3
:1007000007D1DCF800309A4203D053687344436049
:10071000126802608142BDE8804018BF08607047DF
:1007200080B58C460146006141F804CF944506D956
:100730009A4201D29C450CD2BF48806805E080698E
:10074000D21A824205D2BC48C06800F076FA002076
:1007500080BD012080BD00BF10B5044600F096FAB0
:10076000A06BB0FA80F0440900F0B0FA204610BD4A
:1007700006480068006880F3088862B661B6BFF377
:100780004F8FBFF36F8F00DF00BF00BF08ED00E0A9
:100790000648C16A096821B1C16AC968C96849685F
:1007A00001E04FF0FF310162704700BF9000002070
:1007B0002DE9FC47804600F0ABFF9F4D81464FF08E
:1007C000000A2869814533D2A868016859B3C06816
:1007D000C6680768341D204600F010FA316A3046BA
:1007E000884796F824004007EED5B0693844B842EF
:1007F00006D9706036612146A86800F01EFAE3E76A
:10080000304600213A460023CDF800A001F0ACF8B4
:100810000028D9D14FF0500080F31188BFF36F8FBB
:10082000BFF34F8FFEE7E9684FF0010AC5E90210F8
:10083000C8F800A0C5F81090484602B0BDE8F0879F
:1008400081B000200090094800684FF0500181F30A
:100850001188BFF36F8FBFF34F8F013000D0FEE7D9
:1008600000980028FCD001B0704700BF00000020B5
:100870002DE9F04F85B0704F02AC4FF0000B01AD89
:1008800063E0D8F820104046884756E002980028D8
:1008900053DB049E706910B1301D00F0AFF928469B
:1008A000FFF786FF02460298092846D8DFE800F0E5
:1008B0000505052528380505252896F8240040F06B
:1008C000010086F82400B069039BC1183046FFF789
:1008D00027FF90B3316A3046884796F824004007D6
:1008E0002BD5B06903990023CDF800B042183046EB
:1008F000002101F039F800BB94E096F8240018E0DC
:1009000096F8240040F0010086F82400039800289F
:10091000B0617ED0811830461346FFF701FF0CE02E
:1009200096F8240010F0020F03D1304600F0E4F9ED
:1009300003E000F0FE0086F824003868214600221B
:1009400000F030FD00287FF4A1AFB8680668002EE3
:100950001ABFC068D0F800904FF0000900F014FBF7
:100960002046FFF725FF8246029810B100F06EFF87
:10097000E3E71EB1D14518D9002204E0F868006809
:10098000B0FA80F042093868A9EB0A0100F03AFA9F
:1009900000F05CFF0028D0D1CB484FF080510160BF
:1009A000BFF34F8FBFF36F8FC7E700F04FFFB868FB
:1009B000C068D0F80C8008F1040000F01FF998F826
:1009C000240010F0040F04D100F0FE0088F8240089
:1009D00057E7D8F8180052464B4600EB090140464D
:1009E000FFF79EFE00283FF44CAF404600214A46E8
:1009F0000023CDF800B000F0B7FF00287FF441AF2E
:100A00004FF0500080F31188BFF36F8FBFF34F8F0B
:100A1000FEE74FF0500080F31188BFF36F8FBFF3F4
:100A20004F8FFEE74FF0500080F31188BFF36F8FB8
:100A3000BFF34F8FFEE700BF1001002004ED00E080
:100A400070B5044600F022F994F8456004F12405DD
:100A500008E0286848B1284600F0C0FE08B100F060
:100A600021FA013E70B20128F3DAFF2084F8450034
:100A700000F02CF900F00AF994F8446004F1100534
:100A800008E0286848B1284600F0A8FE08B100F048
:100A900009FA013E70B20128F3DAFF2084F844001D
:100AA000BDE8704000F012B92DE9F041044600F0B5
:100AB0006BFAAD4E306830B1AA480778002F18BFE6
:100AC0004FF0004724E0444F00203061FB1D17F039
:100AD0000702394623F0070318BF1946DB1B4FF402
:100AE000FA67002AF16018BFC3F5FA67CA194FF018
:100AF0000047083A22F007023260C2E90000501AAB
:100B0000486032680A60C6E9010096480121017018
:100B10000025002C4FD017EA04004CD104F1080145
:100B200011F007000ED0C0F10800014411F0070FCA
:100B300008D04FF0500080F31188BFF36F8FBFF3E0
:100B40004F8FFEE7D6F80480481E404520D2344639
:100B500054F80C3F586822461C46884202D223684B
:100B6000002BF7D133689C4212D0236815681360BC
:100B7000421A112A13D3601810F0070F0AD04FF051
:100B8000500080F31188BFF36F8FBFF34F8FFEE7E4
:100B9000002510E042606160FFF79AFD6068A8EBF5
:100BA0000001083538437160B268914238BFB160C6
:100BB0000021C4E9001000F049FE680704BF284680
:100BC000BDE8F0814FF0500080F31188BFF36F8FC4
:100BD000BFF34F8FFEE700BFEC010020064B4FF044
:100BE000807C21F0010140F8202C40E9033140F8DD
:100BF00004CC4038704700BF41080008D0E90132FA
:100C000001699A60826853604B68834208BF4A60FA
:100C100000220261086801380860086870470021F6
:100C2000024601604FF0FF3142F8081F4260C0E900
:100C30000322704700210161704780B5D1F800C0E0
:100C40001CF1010207D000F10802964652681368B1
:100C50006345FAD903E0D0F810E0DEF804204A60DA
:100C60009160C1F808E0CEF8041008610168013114
:100C7000016080BD42684A6093688B6093685960E8
:100C80009160086101680131016070474FF05000C8
:100C900080F31188BFF36F8FBFF34F8F1548016842
:100CA0004A1C0029026000D070477A48006810F0A2
:100CB000FF0FF9D04FF0500080F31188BFF36F8F12
:100CC000BFF34F8FFEE700BF04ED00E0F34801687B
:100CD00039B10139016018BF7047002080F31188D5
:100CE00070474FF0500080F31188BFF36F8FBFF350
:100CF0004F8FFEE700000020B0B50446B0B119499F
:100D000054F8040C0978002918BF4FF00041014243
:100D10000DD0A4F108052A6892B14FF0500080F37D
:100D20001188BFF36F8FBFF34F8FFEE7B0BD4FF059
:100D3000500080F31188BFF36F8FBFF34F8FFEE732
:100D4000884344F8040C00F01FF9074954F8040CD8
:100D50004A68104448602846FFF7BAFCBDE8B04036
:100D600000F074BDBC090020700000200448002180
:100D7000016081600349416007210160704700BF45
:100D800010E000E03F190100EFF3058010280ED3BA
:100D90001049405CC0490978884208D24FF05000A1
:100DA00080F31188BFF36F8FBFF34F8FFEE70A48C0
:100DB000B9490068496800F4E060884298BF70470C
:100DC0004FF0500080F31188BFF36F8FBFF34F8F48
:100DD000FEE700BFF0E300E00CED00E0DFF820C02C
:100DE000002200E00132092A88BF70475CF83230E7
:100DF000002BF7D14CF832100CEBC2014860704761
:100E0000C009002070B515460E460446FFF73EFFA8
:100E100094F84400FF2804BF002084F8440094F8AC
:100E20004500FF2804BF002084F84500FFF74EFF6F
:100E3000A06B28B904F1240031462A4600F04EF890
:100E40002046BDE87040FFF7FBBD0000C8B169490E
:100E50000A6942B14FF0500080F31188BFF36F8FE1
:100E6000BFF34F8FFEE780B50A6901320A610021A6
:100E7000FFF75EFB00F0EAFC0028BDE8804018BFE9
:100E80007047BA484FF080510160BFF34F8FBFF3F6
:100E90006F8F704704ED00E056494A6B0260496964
:100EA00041607047534801214162704710B50C46BC
:100EB00050B1524909681831FFF7BFFE20460121A1
:100EC000BDE81040FFF734BB4FF0500080F31188AD
:100ED000BFF36F8FBFF34F8FFEE700BFB0B514466F
:100EE0000D4670B1454909681831FFF7C3FE002C63
:100EF000214618BF4FF0FF352846BDE8B040FFF748
:100F000017BB4FF0500080F31188BFF36F8FBFF312
:100F10004F8FFEE71CB5184C00218022002304F1FE
:100F20001C00CDE90010154815A100F01FFB012899
:100F300016D100F0F5FC012812D14FF0500080F3DB
:100F40001188BFF36F8FBFF34F8F4FF0FF302062D8
:100F50000120E06000206061BDE81C4000F050B856
:100F6000013018BF1CBD4FF0500080F31188BFF353
:100F70006F8FBFF34F8FFEE79000002079060008C7
:100F800049444C45000000001A48016901310161E3
:100F9000704700BF1748016911B1012141627047D4
:100FA0000021154B4162816901EB810203EB820252
:100FB000083202E0A1B1143A013952F8083C002B82
:100FC000F8D052F8043C5B6842F8043C934204BFFA
:100FD0005B6842F8043CDA68084B1A60816170472C
:100FE0004FF0500080F31188BFF36F8FBFF34F8F26
:100FF000FEE700BF9000002080010020E8010020F3
:10100000E0B52448072301780191FF2101702249AE
:1010100002784B608DF803209DF8032002F0500207
:101020000A70062206E04A60013A9DF803305B0030
:101030008DF803309DF90330B3F1FF3FF3DD022A51
:101040001ED14FF440724A6001990170D0F8201906
:1010500041F47001C0F82019D0F8201941F0704116
:10106000C0F82019FFF782FE0C4800210160FFF74D
:101070007FFBFFF78FFFFFF7E3FB002002B080BD8F
:101080004FF0500080F31188BFF36F8FBFF34F8F85
:10109000FEE700BF00E400E0840000200000002024
:1010A00070B50C460546C0B104FB05F0002C00F1FC
:1010B000480008BF4820FFF7F7FC064658B1002C4F
:1010C0003046C6E90F544FF0010118BF4830306078
:1010D000304600F00BF8304670BD4FF0500080F302
:1010E0001188BFF36F8FBFF34F8FFEE7B0B50D468A
:1010F000044600B3FFF7CAFD00204FF0FF0C002D9F
:10110000A06384F844C02168D4E90F2384F845C063
:1011100003FB0210A2F10102C4E9011002FB031259
:1011200004F11000E2600FD0FFF779FD04F1240014
:10113000FFF775FD15E04FF0500080F31188BFF305
:101140006F8FBFF34F8FFEE7016851B100F046FB90
:1011500038B1E7484FF080510160BFF34F8FBFF3C4
:101160006F8FFFF7B3FD0120B0BD00BF04ED00E0BD
:101170002DE9FE4F1D4617460E46044600280292F2
:1011800012D0D6B1022D02D1E06B01287BD100F044
:10119000B3FAF0B9EFB14FF0500080F31188BFF30C
:1011A0006F8FBFF34F8FFEE74FF0500080F3118831
:1011B000BFF36F8FBFF34F8FFEE7206C0028E1D0A5
:1011C0004FF0500080F31188BFF36F8FBFF34F8F44
:1011D000FEE704F110086F464FF0000B45E0BBF14D
:1011E000000F04D13846FFF757FE4FF0010BFFF711
:1011F0006DFDFFF7C9FEFFF749FD94F84400FF2895
:1012000004BF002084F8440094F84500FF2804BF80
:10121000002084F84500FFF759FD384602A900F088
:1012200069F9002850D1FFF731FDD4F838A0D4F87F
:101230003C90FFF74BFDCA4512D102994046FFF79B
:1012400035FE2046FFF7FCFB00F000FB68B9A8481C
:101250004FF080510160BFF34F8FBFF36F8F04E0F9
:101260002046FFF7EDFB00F0F1FAFFF70FFDA06B52
:10127000022D11D0E16B88420ED302980028AED126
:10128000FFF724FD25E04FF0500080F31188BFF3F5
:101290006F8FBFF34F8FFEE7204631462A46FFF798
:1012A000B2F954F8240F58B1204600F097FA38B13B
:1012B0008F494FF080500860BFF34F8FBFF36F8F9F
:1012C000FFF704FD012005E02046FFF7B9FB00F021
:1012D000BDFA002003B0BDE8F08F00BF2DE9F84350
:1012E0001E4691460F460546C8B10FB3022E02D1E5
:1012F000E86B012836D1FFF747FDEFF311884FF077
:10130000500080F31188BFF36F8FBFF34F8F022E11
:10131000A86B19D0E96B884216D300203DE04FF04E
:10132000500080F31188BFF36F8FBFF34F8FFEE73C
:10133000286C0028DAD04FF0500080F31188BFF3FA
:101340006F8FBFF34F8FFEE795F84540284639462B
:101350003246FFF758F9FF2C0DD0601C85F8450088
:1013600001201AE04FF0500080F31188BFF36F8F17
:10137000BFF34F8FFEE755F8240F0028F0D0284622
:1013800000F02CFA0146B9F1000F4FF0010018BF30
:10139000002902D00120C9F8000088F3118801B0AB
:1013A000BDE8F0832DE9FE4F16468B460446002823
:1013B000029210D0BBF1000F00F0868000F09CF983
:1013C00090B98EB14FF0500080F31188BFF36F8F4A
:1013D000BFF34F8FFEE74FF0500080F31188BFF34B
:1013E0006F8FBFF34F8FFEE704F124084FF0000921
:1013F0006F4602AE002546E00298002871D01DB964
:101400003846FFF749FD0125FFF760FCFFF7BCFDFB
:10141000FFF73CFC94F84400FF2808BF84F8449090
:1014200094F84500FF2808BF84F84590FFF74EFC6C
:101430003846314600F05EF848B12046FFF700FB21
:1014400000F004FA2046FFF787F9E0B14BE02046B0
:10145000FFF782F990B102994046FFF727FD204639
:10146000FFF7EEFA00F0F2F968B9A2484FF08051A8
:101470000160BFF34F8FBFF36F8F04E02046FFF78B
:10148000DFFA00F0E3F9FFF701FCD4F838A0BAF175
:10149000000FB1D020465946FFF7A6F8AAF1010087
:1014A000A06354F8100F58B1204600F097F938B1F6
:1014B00090494FF080500860BFF34F8FBFF36F8F9C
:1014C000FFF704FC01200FE0206C00283FF476AF0A
:1014D0004FF0500080F31188BFF36F8FBFF34F8F31
:1014E000FEE7FFF7F3FB002003B0BDE8F08F00BF7D
:1014F00004ED00E0B0B50D460446F0B135B3FFF79A
:10150000C5FBDFF80CC4DCF814202968481C12D095
:101510006368DCF834E09A4202D32068864520D123
:10152000D01A81421BD9081A2860DCF834002060E8
:10153000DCF814006060002414E04FF0500080F3E9
:101540001188BFF36F8FBFF34F8FFEE74FF050004E
:1015500080F31188BFF36F8FBFF34F8FFEE700203A
:1015600028600124FFF7B2FB2046B0BD2DE9F84FFB
:10157000834690009A4616460D46FFF795FA0746B1
:1015800008B36020FFF790FA0446C8B107EB860065
:10159000DDF82880002D2763A0F1040020F0070962
:1015A00014D004F1340000210F2905D86A5C42549C
:1015B0006A5C0131002AF7D1002084F8430008E07A
:1015C0003846FFF799FB4FF0FF308CE0002084F89D
:1015D0003400B8F1040F04F104060B9D28BF4FF04E
:1015E00004083046C4F82C80FFF724FB04F11800EF
:1015F000FFF720FBC8F105000021A0611120246144
:10160000646202E044F8201001301628FAD100206C
:1016100059465246A06584F85C004846FFF7DEFA5A
:10162000002D206000D02C60FFF730FBB84FDFF8B2
:10163000E8A2B8680130B860DAF8000050B1F86884
:1016400070BBDAF80000E16AC06A884298BFCAF845
:10165000004025E0CAF80040B868012820D1B34610
:10166000AC4E002503E07019FFF7D9FA1435642D4C
:10167000F9D1DFF878901E4D4846A84709F11408C3
:101680004046A84707F16000A84707F13800A8477F
:1016900007F14C00A847C7F82C90C7F830805E4689
:1016A000386801303860E06AB9698842994988BF72
:1016B000B86100EB800001EB80003146FFF7DAFAF9
:1016C000FFF704FBF86868B1DAF80000E16AC06A65
:1016D000884207D291484FF080510160BFF34F8F8D
:1016E000BFF36F8F012001B0BDE8F08F50010020E3
:1016F0001F0C000804ED00E08548C16800290FBFF9
:1017000001200069B0FA80F0400918BF400070471E
:101710007F484069704700BF2DE9F0477C4E306933
:1017200050B1B06A0130B0620024706A002818BF5E
:1017300001242046BDE8F087706910F1010AC6F85F
:1017400014A034D0306A8245EED3DFF8C881DFF8C8
:10175000C891002423E0F06AC068C7683D4655F888
:10176000040F824521D32846FFF748FAB86A18B11A
:1017700007F11800FFF742FAF86AB1698842294672
:1017800088BFB06100EB800008EB8000FFF772FAC1
:10179000F86AD9F80010C96A884228BF0124F06AA3
:1017A00000680028D7D14FF0FF303062BDE7F06A03
:1017B000006840B14FF0500080F31188BFF36F8F85
:1017C000BFF34F8FFEE7F06A316BF1623063706BED
:1017D00001307063FEF7DCFFB4E700BF70B5C0688E
:1017E000C56875B105F118042046FFF707FA484EA1
:1017F000306978B106F160002146FFF73BFA2C35DD
:101800001AE04FF0500080F31188BFF36F8FBFF3E1
:101810004F8FFEE72C1D2046FFF7F0F955F82C0FEF
:10182000B16988423B4988BFB06100EB800001EBA1
:1018300080002146FFF71EFA374928680968C96AFF
:10184000884292BF00200120706270BD2DE9F843EC
:101850002F4D286968B1FFF719FA28690138286106
:10186000286978B10024FFF731FA204601B0BDE8BD
:10187000F0834FF0500080F31188BFF36F8FBFF3F8
:101880004F8FFEE7A8680028ECD0DFF88880224F51
:1018900000264FF001091CE0E86EC66806F118004A
:1018A000FFF7ACF9341D2046FFF7A8F9F06AA969E3
:1018B0008842214688BFA86100EB800008EB8000C9
:1018C000FFF7D8F9F06A3968C96A884228BFC5F8B5
:1018D0002490286E0028DFD10EB1FEF759FFAC6AC4
:1018E00044B10126FFF718FF00B16E62013CF9D147
:1018F0000020A862686A0028B4D008484FF08051E0
:1019000001240160BFF34F8FBFF36F8FABE700BFC0
:101910009000002080010020E801002004ED00E09C
:10192000E0B5FEF739FE0C48016861B104300321CF
:1019300080220023CDE90010084809A1FFF716FE18
:1019400008B102B080BD4FF0500080F31188BFF3A2
:101950006F8FBFF34F8FFEE7100100207108000862
:10196000546D7220537663008446C8B11FB5154C80
:101970002068F0B10DF1040E05298EE806101ADC7E
:10198000FFF7BAFE014620680023022919BF0DF1B6
:1019900004010022069A0DF10401FFF7E9FB0FE0B4
:1019A0004FF0500080F31188BFF36F8FBFF34F8F5C
:1019B000FEE7002004E01A4601A90023FFF78EFC91
:1019C00004B010BD10010020E8190008000000203C
:1019D0000400000028010008EC1900081000002095
:0C19E0000010000044010008AAAAAAAAF6
:040000050800018965
:00000001FF
